:100000000C942A000C9447000C9447000C94470071
:100010000C9447000C9447000C9447000C94470044
:100020000C9447000C9447000C9447000C94470034
:100030000C9447000C9447000C9447000C94470024
:100040000C9495000C9447000C9447000C944700C6
:100050000C94470011241FBECFE5D8E0DEBFCDBF12
:1000600010E0A0E6B0E0ECEFF6E002C005900D92E3
:10007000AC36B107D9F720E0ACE6B0E001C01D9284
:10008000A337B207E1F70E942E010C947C030C9475
:10009000000080E03AC0482F50E09BE0949FF001C0
:1000A000959FF00D1124E05AFF4F308192812481F9
:1000B000932B922B97B99681903269F496B12BE0ED
:1000C000249FF001259FF00D1124E05AFF4F278156
:1000D0009F71922B96B99BE0949FF001959FF00D34
:1000E0001124E05AFF4F4181958136812085942B60
:1000F000932B922B96B92185328530936D002093F6
:100100006C009FB790689FBF8F5F882321F286B1F4
:10011000806186B986B1806886B9089586B18064A9
:1001200086B9089584B195B108951F920F920FB6C4
:100130000F9211242F933F934F935F936F937F936D
:100140008F939F93AF93BF93EF93FF930E9492007F
:100150009093720080937100E0916C00F0916D00BB
:10016000099586B1806186B9FF91EF91BF91AF91FA
:100170009F918F917F916F915F914F913F912F91BF
:100180000F900FBE0F901F90189581E080936E0026
:1001900008950E9434010E94490008950E948E0033
:1001A00087EE93E00197F1F700C0000080916E00A8
:1001B0008130D1F480917100909172009C01220FE6
:1001C000331F220F331F820F931F6FEF73E00E94C4
:1001D000540380E090E00E94590210926E00562F66
:1001E000472F382F292F00C0652F742F832F922F70
:1001F0000895CF92DF92EF92FF92CF93C82F0E9483
:10020000CE009B01AC010E944C0120E030E040E2B6
:1002100051E40E94B8016B017C016C2F70E080E01A
:1002200090E00E945B02A70196010E94E70220E095
:1002300030E040E251E40E94B80120E030E040E2CA
:1002400051E40E94E7020E942A02862F0E943C018C
:10025000CF91FF90EF90DF90CF9008950E94C9005A
:1002600082E30E94F900FCCF81B3806881BB15BC9A
:100270008AE685BD14BC08952FEF829FC00111242A
:1002800064E670E00E946803611103C0615063BDC1
:10029000089563BD08955058BB27AA270E946301A3
:1002A0000C94AD020E949F0238F00E94A60220F03A
:1002B00039F49F3F19F426F40C949C020EF4E09557
:1002C000E7FB0C949602E92F0E94BE0258F3BA177E
:1002D000620773078407950720F079F4A6F50C945C
:1002E000E0020EF4E0950B2EBA2FA02D0B01B90100
:1002F00090010C01CA01A0011124FF27591B99F09C
:10030000593F50F4503E68F11A16F040A22F232FA7
:10031000342F4427585FF3CF469537952795A795F7
:10032000F0405395C9F77EF41F16BA0B620B730B9E
:10033000840BBAF09150A1F0FF0FBB1F661F771F0F
:10034000881FC2F70EC0BA0F621F731F841F48F4C4
:10035000879577956795B795F7959E3F08F0B0CF4D
:100360009395880F08F09927EE0F97958795089534
:100370000E94CC010C94AD020E94A60258F00E948B
:100380009F0240F029F45F3F29F00C94960251112E
:100390000C94E1020C949C020E94BE0268F3992323
:1003A000B1F3552391F3951B550BBB27AA27621771
:1003B0007307840738F09F5F5F4F220F331F441F7E
:1003C000AA1FA9F335D00E2E3AF0E0E832D09150B2
:1003D0005040E695001CCAF72BD0FE2F29D0660F9F
:1003E000771F881FBB1F261737074807AB07B0E8E2
:1003F00009F0BB0B802DBF01FF2793585F4F3AF0E8
:100400009E3F510578F00C9496020C94E1025F3FF8
:10041000E4F3983ED4F3869577956795B795F7956D
:100420009F5FC9F7880F911D9695879597F9089555
:10043000E1E0660F771F881FBB1F621773078407F1
:10044000BA0720F0621B730B840BBA0BEE1F88F700
:10045000E09508950E94C60288F09F5798F0B92F42
:100460009927B751B0F0E1F0660F771F881F991FE9
:100470001AF0BA95C9F714C0B13091F00E94E002A9
:10048000B1E008950C94E002672F782F8827B85FB9
:1004900039F0B93FCCF3869577956795B395D9F741
:1004A0003EF490958095709561957F4F8F4F9F4F4B
:1004B0000895E89409C097FB3EF490958095709557
:1004C00061957F4F8F4F9F4F9923A9F0F92F96E9A0
:1004D000BB279395F695879577956795B795F11115
:1004E000F8CFFAF4BB0F11F460FF1BC06F5F7F4FB2
:1004F0008F4F9F4F16C0882311F096E911C07723C4
:1005000021F09EE8872F762F05C0662371F096E8CC
:10051000862F70E060E02AF09A95660F771F881F9B
:10052000DAF7880F9695879597F9089597F99F6759
:1005300080E870E060E008959FEF80EC089500246B
:100540000A941616170618060906089500240A9438
:1005500012161306140605060895092E0394000CBE
:1005600011F4882352F0BB0F40F4BF2B11F460FF4D
:1005700004C06F5F7F4F8F4F9F4F089557FD905876
:10058000440F551F59F05F3F71F04795880F97FB57
:10059000991F61F09F3F79F0879508951216130611
:1005A0001406551FF2CF4695F1DF08C01616170640
:1005B0001806991FF1CF8695710561050894089575
:1005C000E894BB2766277727CB0197F908950E9407
:1005D000FA020C94AD020E949F0238F00E94A6021B
:1005E00020F0952311F00C9496020C949C02112497
:1005F0000C94E1020E94BE0270F3959FC1F3950F27
:1006000050E0551F629FF001729FBB27F00DB11D96
:10061000639FAA27F00DB11DAA1F649F6627B00D26
:10062000A11D661F829F2227B00DA11D621F739F0F
:10063000B00DA11D621F839FA00D611D221F749F1D
:100640003327A00D611D231F849F600D211D822F64
:10065000762F6A2F11249F5750409AF0F1F088238B
:100660004AF0EE0FFF1FBB1F661F771F881F9150B8
:100670005040A9F79E3F510580F00C9496020C94CF
:10068000E1025F3FE4F3983ED4F386957795679552
:10069000B795F795E7959F5FC1F7FE2B880F911DE2
:1006A0009695879597F90895AA1BBB1B51E107C042
:1006B000AA1FBB1FA617B70710F0A61BB70B881FF2
:1006C000991F5A95A9F780959095BC01CD01089581
:1006D00097FB072E16F4009407D077FD09D00E94EF
:1006E000540307FC05D03EF4909581959F4F0895E3
:0C06F000709561957F4F0895F894FFCF3E
:0C06FC00070300010008000080C500009A
:00000001FF
